:020000040000FA
:100000000C9453000C947B000C947B000C947B00AC
:100010000C947B000C947B000C947B000C947B0074
:100020000C947B000C947B000C947B000C947B0064
:100030000C947B000C947B000C947B000C947B0054
:100040000C946E030C947B000C943C030C941603EC
:100050000C947B000C947B000C947B000C947B0034
:100060000C947B000C947B0000000000250028000D
:100070002B0000000000240027002A0004040404D0
:100080000404040402020202020203030303030342
:10009000010204081020408001020408102001021F
:1000A00004081020F20511241FBECFEFD8E0DEBFF8
:1000B000CDBF11E0A0E0B1E0E0ECF1E102C00590BD
:1000C0000D92AC32B107D9F721E0ACE2B1E001C04A
:1000D0001D92A23DB207E1F710E0C3E5D0E004C0F5
:1000E0002197FE010E94D808C235D107C9F70E94A6
:1000F000B8030C94DE080C940000CF93DF9390E0DB
:10010000FC01E057FF4F249184589F4FFC018491DC
:100110008823C1F090E0880F991FFC01EE58FF4F33
:10012000C591D491FC01E859FF4FA591B4919FB7B7
:10013000F8948881E22FE0958E2388838C91E823C0
:10014000EC939FBFDF91CF910895AF92BF92CF9272
:10015000DF92EF92FF920F931F93CF93DF936C0187
:100160007B018B01040F151FEB015E01AE18BF0868
:10017000C017D10759F06991D601ED91FC9101901A
:10018000F081E02DC6010995892B79F7C501DF9132
:10019000CF911F910F91FF90EF90DF90CF90BF9084
:1001A000AF900895FC01538D448D252F30E0842FAE
:1001B00090E0821B930B541710F0CF96089501978F
:1001C0000895FC01918D828D981761F0A28DAE0F7C
:1001D000BF2FB11D5D968C91928D9F5F9F73928F03
:1001E00090E008958FEF9FEF0895FC01918D828D2F
:1001F000981731F0828DE80FF11D858D90E00895FC
:100200008FEF9FEF0895FC01918D228D892F90E053
:10021000805C9F4F821B91098F739927089585E316
:1002200091E00E94030121E0892B09F420E0822F54
:10023000089580E090E0892B29F00E940F01811140
:100240000C9400000895FC01A48DA80FB92FB11DD6
:10025000A35ABF4F2C91848D90E001968F739927FC
:10026000848FA689B7892C93A089B1898C918370DA
:1002700080648C93938D848D981306C00288F389D3
:10028000E02D80818F7D80830895EF92FF920F9300
:100290001F93CF93DF93EC0181E0888F9B8D8C8D32
:1002A00098131AC0E889F989808185FF15C09FB726
:1002B000F894EE89FF896083E889F98980818370E9
:1002C000806480839FBF81E090E0DF91CF911F9198
:1002D0000F91FF90EF900895F62E0B8D10E00F5FB9
:1002E0001F4F0F731127E02E8C8D8E110CC00FB68F
:1002F00007FCFACFE889F989808185FFF5CFCE0127
:100300000E942301F1CFEB8DEC0FFD2FF11DE35A7D
:10031000FF4FF0829FB7F8940B8FEA89FB898081A9
:100320008062CFCFCF93DF93EC01888D8823B9F023
:10033000AA89BB89E889F9898C9185FD03C08081F0
:1003400086FD0DC00FB607FCF7CF8C9185FFF2CF6D
:10035000808185FFEDCFCE010E942301E9CFDF919F
:10036000CF9108958E50806480937C0080917A00B4
:10037000806480937A0080917A0086FDFCCF809122
:1003800078009091790008953FB7F89480912D01FD
:1003900090912E01A0912F01B091300126B5A89B1C
:1003A00005C02F3F19F00196A11DB11D3FBFBA2F07
:1003B000A92F982F8827BC01CD01620F711D811DC7
:1003C000911D42E0660F771F881F991F4A95D1F74C
:1003D0000895FC0101900020E9F73197AF01481B17
:1003E000590BBC0185E391E00C94A5008F929F927C
:1003F000AF92BF920F931F93CF93DF93CDB7DEB72A
:10040000A1970FB6F894DEBF0FBECDBF19A2423040
:1004100008F44AE08E010F5D1F4F842E912CB12C01
:10042000A12CA50194010E94B608E62FB901CA01CA
:10043000EA30F4F4E05DD801EE938D01232B242BF8
:10044000252B79F790E080E0109719F0CD010E94FC
:10045000E901A1960FB6F894DEBF0FBECDBFDF91C4
:10046000CF911F910F91BF90AF909F908F90089563
:10047000E95CE1CF4F925F926F927F928F929F9251
:10048000AF92BF92CF92DF92EF92FF920F931F93A2
:10049000CF936B017C01742EAC019B010E949C08E0
:1004A000882399F082E191E0CF911F910F91FF9005
:1004B000EF90DF90CF90BF90AF909F908F907F9004
:1004C0006F905F904F900C94E90146015701E894BA
:1004D000B7F82FEF3FEF4FE75FE7C501B4010E9488
:1004E0009C0881110DC02FEF3FEF4FE75FE7C5017B
:1004F000B4010E948C0618161CF486E191E0D4CF5A
:100500002FEF3FEF4FE75FE4C701B6010E94E4071A
:1005100018161CF48AE191E0C7CF2FEF3FEF4FE7A9
:100520005FECC701B6010E948C0687FDF3CF20E087
:1005300030E0A901C701B6010E948C0610E000E07E
:1005400087FF0AC06DE285E391E00E9445018C01BE
:10055000F7FAF094F7F8F094C0E060E070E080E023
:100560009FE37C1641F020E030E040E251E40E943D
:100570009106CF5FF6CFA70196010E9420062B01BE
:100580003C010E9403074B015C014AE00E94F60116
:100590007C01E00EF11ECC23C1F1C501B4010E9423
:1005A00032079B01AC01C301B2010E941F064B013F
:1005B0005C016EE285E391E00E944501E80EF91EC0
:1005C000C15018F120E030E040E251E4C501B4012F
:1005D0000E94E9072B013C010E9403074B01B12C4B
:1005E000A12C4AE0C501B4010E94F601E80EF91EF3
:1005F000C501B4010E9432079B01AC01C301B201E5
:100600000E941F064B015C01DBCFC701CF911F91F8
:100610000F91FF90EF90DF90CF90BF90AF909F90A1
:100620008F907F906F905F904F9008951F920F92E0
:100630000FB60F9211242F933F934F935F936F93B5
:100640007F938F939F93AF93BF93EF93FF9385E334
:1006500091E00E942301FF91EF91BF91AF919F9193
:100660008F917F916F915F914F913F912F910F905B
:100670000FBE0F901F9018951F920F920FB60F92FA
:1006800011242F938F939F93EF93FF93E091450154
:10069000F09146018081E0914B01F0914C0182FD87
:1006A0001BC0908180914E018F5F8F7320914F010D
:1006B000821741F0E0914E01F0E0EB5CFE4F958F28
:1006C00080934E01FF91EF919F918F912F910F9009
:1006D0000FBE0F901F9018958081F4CF1F920F923C
:1006E0000FB60F9211242F933F938F939F93AF9345
:1006F000BF938091310190913201A0913301B0916B
:10070000340130912C0123E0230F2D3758F5019649
:10071000A11DB11D20932C018093310190933201D2
:10072000A0933301B093340180912D0190912E015B
:10073000A0912F01B09130010196A11DB11D8093B0
:100740002D0190932E01A0932F01B0933001BF9102
:10075000AF919F918F913F912F910F900FBE0F906E
:100760001F90189526E8230F0296A11DB11DD2CF28
:10077000CF93DF93CDB7DEB76A970FB6F894DEBF9D
:100780000FBECDBF789484B5826084BD84B581608E
:1007900084BD85B5826085BD85B5816085BD80914C
:1007A0006E00816080936E001092810080918100C4
:1007B00082608093810080918100816080938100BC
:1007C000809180008160809380008091B10084607E
:1007D0008093B1008091B00081608093B0008091DF
:1007E0007A00846080937A0080917A00826080939E
:1007F0007A0080917A00816080937A0080917A00FB
:10080000806880937A001092C1008EE00E947D0083
:100810008FE00E947D00E0914501F091460182E069
:100820008083E0914101F09142011082E091430107
:10083000F09144018FEC808310924D01E0914901C9
:10084000F0914A0186E08083E0914701F0914801F0
:10085000808180618083E0914701F091480180812F
:1008600088608083E0914701F09148018081806831
:100870008083E0914701F091480180818F7D8083E2
:1008800090E0292E90E0392E8FB7F894C090310176
:10089000D0903201E0903301F09034018FBF8EE0B0
:1008A0000E94B201BC01990F880B990B0E9434077A
:1008B00069837A838B839C832AE939EA4CE054E488
:1008C0000E948C0687FF0CC02CEC3CE246EE53E401
:1008D00069817A818B819C810E94E4071816CCF093
:1008E0002FB7F894609131017091320180913301FA
:1008F000909134012FBF6C197D098E099F090E94C8
:10090000320720E030E048E452E40E94E407181681
:1009100034F68FB7F8942091310130913201409133
:100920003301509134012D8B3E8B4F8B588F8FBFED
:1009300019861A861B861C861D821E821F821886B7
:10094000412C512C3201C12CD12C76011A8E198EDA
:100950002FB7F89460913101709132018091330189
:10096000909134012FBF2D893E894F89588D621B8C
:10097000730B840B950B0E94320720E030E048E4B3
:1009800052E40E948C0687FFADC03FEFC31AD30A22
:10099000E30AF30A8EE00E94B201BC01990F880BB2
:1009A000990B0E943407698B7A8B8B8B9C8B8FE021
:1009B0000E94B2015C0120E030E040EA50E4698925
:1009C0007A898B899C890E94E90720E030EC4FE707
:1009D00054E40E94910627ED33EA40E250E40E947D
:1009E0001F0620E030E040E151E40E94E9072EE6D6
:1009F0003BED4EE751E40E94E9076D877E878F87C4
:100A0000988BB501BB0C880B990B0E94340720E032
:100A100030E040EA50E40E94E90720E030EC4FE784
:100A200054E40E94910620E030E040E250E40E944D
:100A30001F0622E03BE247E85DE30E9491064B017E
:100A40005C012D853E854F855889CA01B9010E94F8
:100A5000E9079B01AC01C301B2010E9420062B01F2
:100A60003C01A5019401C501B4010E94E9079B0165
:100A7000AC016D817E818F8198850E9420066D83F7
:100A80007E838F839887A50194016D857E858F85F0
:100A900098890E94E9079B01AC0169857A858B855D
:100AA0009C850E94200669877A878B879C87298985
:100AB0003A894B895C8969817A818B819C810E940A
:100AC0008C06881F8827881F41E0C416D104E104E2
:100AD000F10409F07DC0182F498D5A8D423051051F
:100AE00009F036CFC701B6010E9432076B017C01C5
:100AF000AC019B01C301B2010E9491060E945C08F7
:100B00002B013C01A70196016D817E818F81988523
:100B10000E9491060E945C084B015C01A7019601AE
:100B200069857A858B859C850E9491066B017C0185
:100B300042E0C301B2010E943A028EE191E00E94BC
:100B4000E90142E0C501B4010E943A0282E291E06B
:100B50000E94E90142E0C701B6010E943A0285E223
:100B600091E00E94E90189E291E00E94E9010E947E
:100B7000C4014B015C0184EFC82EDD24D394E12C29
:100B8000F12C0E94C401681979098A099B09683E01
:100B9000734081059105A8F351E0C51AD108E10819
:100BA000F10888EE880E83E0981EA11CB11CC114C8
:100BB000D104E104F10429F72114310409F464CECD
:100BC0000E940F01882309F45FCE0E9400005CCED2
:100BD000811709F480CF498D5A8D4F5F5F4F5A8F2F
:100BE000498F79CFE5E3F1E01382128288EE93E03A
:100BF000A0E0B0E084839583A683B78384E091E08E
:100C00009183808385EC90E09587848784EC90E0E5
:100C10009787868780EC90E0918B808B81EC90E0C9
:100C2000938B828B82EC90E0958B848B86EC90E0AA
:100C3000978B868B118E128E138E148E08955058BA
:100C4000BB27AA270E9437060C94AA070E949C077C
:100C500038F00E94A30720F039F49F3F19F426F4DE
:100C60000C9499070EF4E095E7FB0C949307E92F99
:100C70000E94BB0758F3BA176207730784079507EA
:100C800020F079F4A6F50C94DD070EF4E0950B2E18
:100C9000BA2FA02D0B01B90190010C01CA01A001CE
:100CA0001124FF27591B99F0593F50F4503E68F129
:100CB0001A16F040A22F232F342F4427585FF3CF6A
:100CC000469537952795A795F0405395C9F77EF43B
:100CD0001F16BA0B620B730B840BBAF09150A1F084
:100CE000FF0FBB1F661F771F881FC2F70EC0BA0F0A
:100CF000621F731F841F48F4879577956795B79592
:100D0000F7959E3F08F0B0CF9395880F08F099278C
:100D1000EE0F9795879508950E946F0708F481E07C
:100D200008950E94A5060C94AA070E94A30758F0F4
:100D30000E949C0740F029F45F3F29F00C94930730
:100D400051110C94DE070C9499070E94BB0768F3BD
:100D50009923B1F3552391F3951B550BBB27AA2774
:100D600062177307840738F09F5F5F4F220F331FAE
:100D7000441FAA1FA9F335D00E2E3AF0E0E832D076
:100D800091505040E695001CCAF72BD0FE2F29D079
:100D9000660F771F881FBB1F261737074807AB074B
:100DA000B0E809F0BB0B802DBF01FF2793585F4FC0
:100DB0003AF09E3F510578F00C9493070C94DE07AF
:100DC0005F3FE4F3983ED4F3869577956795B795A2
:100DD000F7959F5FC9F7880F911D9695879597F9AD
:100DE0000895E1E0660F771F881FBB1F6217730726
:100DF0008407BA0720F0621B730B840BBA0BEE1F3B
:100E000088F7E09508950E94C30788F09F5798F0EF
:100E1000B92F9927B751B0F0E1F0660F771F881FFF
:100E2000991F1AF0BA95C9F714C0B13091F00E9419
:100E3000DD07B1E008950C94DD07672F782F882730
:100E4000B85F39F0B93FCCF3869577956795B39540
:100E5000D9F73EF490958095709561957F4F8F4FAF
:100E60009F4F0895E89409C097FB3EF490958095B4
:100E7000709561957F4F8F4F9F4F9923A9F0F92F60
:100E800096E9BB279395F695879577956795B795DE
:100E9000F111F8CFFAF4BB0F11F460FF1BC06F5FC4
:100EA0007F4F8F4F9F4F16C0882311F096E911C0D6
:100EB000772321F09EE8872F762F05C0662371F0F7
:100EC00096E8862F70E060E02AF09A95660F771F0B
:100ED000881FDAF7880F9695879597F90895990FE7
:100EE0000008550FAA0BE0E8FEEF16161706E807F4
:100EF000F907C0F012161306E407F50798F0621B15
:100F0000730B840B950B39F40A2661F0232B242BE9
:100F1000252B21F408950A2609F4A140A6958FEF08
:100F2000811D811D089597F99F6780E870E060E05A
:100F300008959FEF80EC089500240A941616170672
:100F400018060906089500240A94121613061406BA
:100F500005060895092E0394000C11F4882352F01D
:100F6000BB0F40F4BF2B11F460FF04C06F5F7F4FD5
:100F70008F4F9F4F089557FD9058440F551F59F0BC
:100F80005F3F71F04795880F97FB991F61F09F3F76
:100F900079F087950895121613061406551FF2CF9F
:100FA0004695F1DF08C0161617061806991FF1CFEF
:100FB00086957105610508940895E894BB27662716
:100FC0007727CB0197F908950E946F0708F48FEFF8
:100FD00008950E94FC070C94AA070E949C0738F011
:100FE0000E94A30720F0952311F00C9493070C9412
:100FF000990711240C94DE070E94BB0770F3959F9C
:10100000C1F3950F50E0551F629FF001729FBB27FF
:10101000F00DB11D639FAA27F00DB11DAA1F649F9B
:101020006627B00DA11D661F829F2227B00DA11D4E
:10103000621F739FB00DA11D621F839FA00D611DD4
:10104000221F749F3327A00D611D231F849F600DF5
:10105000211D822F762F6A2F11249F5750409AF01E
:10106000F1F088234AF0EE0FFF1FBB1F661F771FAA
:10107000881F91505040A9F79E3F510580F00C9475
:1010800093070C94DE075F3FE4F3983ED4F3869514
:1010900077956795B795F795E7959F5FC1F7FE2B15
:1010A000880F911D9695879597F9089519F416F470
:1010B0000C9499070C94A1080E94C307B8F39923D4
:1010C000C9F3B6F39F57550B87FF0E94AF08002462
:1010D000A0E640EA900180585695979528F4805CE8
:1010E000660F771F881F20F026173707480730F450
:1010F000621B730B840B202931294A2BA695179468
:101100000794202531254A2758F7660F771F881F37
:1011100020F026173707480730F4620B730B840B57
:10112000200D311D411DA09581F7B901842F9158E3
:10113000880F9695879508950E946F07880B990BE5
:1011400008959F3F31F0915020F4879577956795EA
:10115000B795880F911D9695879597F908959150A9
:101160005040660F771F881FD2F70895A1E21A2E0C
:10117000AA1BBB1BFD010DC0AA1FBB1FEE1FFF1F3B
:10118000A217B307E407F50720F0A21BB30BE40B8B
:10119000F50B661F771F881F991F1A9469F76095D2
:1011A0007095809590959B01AC01BD01CF0108958C
:1011B000EE0FFF1F0590F491E02D0994F894FFCFF6
:1011C000000000004501A500D20092010301E100EA
:1011D000F5006E616E00696E66006F7666002056DF
:0C11E0002000204100205720000D0A00D4
:107E0000112484B714BE81FFF0D085E080938100F7
:107E100082E08093C00088E18093C10086E0809377
:107E2000C20080E18093C4008EE0C9D0259A86E02C
:107E300020E33CEF91E0309385002093840096BBD3
:107E4000B09BFECF1D9AA8958150A9F7CC24DD24C4
:107E500088248394B5E0AB2EA1E19A2EF3E0BF2EE7
:107E6000A2D0813461F49FD0082FAFD0023811F036
:107E7000013811F484E001C083E08DD089C08234E0
:107E800011F484E103C0853419F485E0A6D080C0E4
:107E9000853579F488D0E82EFF2485D0082F10E0AE
:107EA000102F00270E291F29000F111F8ED06801E7
:107EB0006FC0863521F484E090D080E0DECF843638
:107EC00009F040C070D06FD0082F6DD080E0C81688
:107ED00080E7D80618F4F601B7BEE895C0E0D1E017
:107EE00062D089930C17E1F7F0E0CF16F0E7DF06D8
:107EF00018F0F601B7BEE89568D007B600FCFDCFD4
:107F0000A601A0E0B1E02C9130E011968C91119780
:107F100090E0982F8827822B932B1296FA010C0160
:107F200087BEE89511244E5F5F4FF1E0A038BF0790
:107F300051F7F601A7BEE89507B600FCFDCF97BE46
:107F4000E89526C08437B1F42ED02DD0F82E2BD052
:107F50003CD0F601EF2C8F010F5F1F4F84911BD097
:107F6000EA94F801C1F70894C11CD11CFA94CF0C13
:107F7000D11C0EC0853739F428D08EE10CD085E9AC
:107F80000AD08FE07ACF813511F488E018D01DD067
:107F900080E101D065CF982F8091C00085FFFCCF94
:107FA0009093C60008958091C00087FFFCCF809118
:107FB000C00084FD01C0A8958091C6000895E0E648
:107FC000F0E098E1908380830895EDDF803219F02E
:107FD00088E0F5DFFFCF84E1DECF1F93182FE3DFCA
:107FE0001150E9F7F2DF1F91089580E0E8DFEE27F6
:047FF000FF270994CA
:027FFE00040479
:00000001FF
